:020000040800F2
:10000000481C0020A901000831680008AD02000862
:100010005966000855070008D7970008000000003F
:1000200000000000000000000000000081750008D2
:10003000390A000800000000FB010008097E0008E2
:10004000C3010008C3010008C3010008C301000880
:10005000C3010008C3010008C3010008C301000870
:10006000C3010008C3010008C3010008C301000860
:10007000C3010008C3010008C3010008C301000850
:10008000C3010008C3010008C3010008000000000C
:10009000000000000000000000000000C301000894
:1000A000C3010008C3010008C3010008C301000820
:1000B000C3010008C3010008C3010008C301000810
:1000C000C3010008C3010008C3010008C301000800
:1000D000C30100085D850008758500080000000068
:1000E000C3010008C3010008C301000800000000AC
:1000F000000000000000000000000000C301000834
:1001000000000000C3010008C3010008C30100088B
:1001100000000000000000000000000000000000DF
:10012000C3010008C3010008D1080008C30100088A
:10013000C3010008000000000000000000000000F3
:10014000000000000000000000000000116900082D
:10015000C3010008C3010008E1080008C30100084A
:10016000C3010008C30100080000000000000000F7
:10017000000000000000000000000000000000007F
:1001800000000000C30100080000000000000000A3
:10019000C3010008DFF80CD000F0C6F800480047A3
:1001A000A3030008481C0020064880470648004773
:1001B000FEE7FEE7FEE7FEE7FEE7FEE7FEE7FEE717
:1001C000FEE7FEE71D7E000895010008EFF31080B2
:1001D00072B6704780F310887047394A1368012B54
:1001E00004D04FF001031360364A1060364A1160A4
:1001F00036484FF0805101607047EFF3108272B6BD
:100200002F48016821B34FF0000101602D480168BB
:1002100091B1EFF309811EF0100F08BF21ED108B93
:1002200021E9F00F4FF000041EF0100F08BF012469
:1002300041F8044D0068016023490968096808C94C
:10024000B1E8F00F002B18BFB1EC108B81F30988D7
:1002500082F310884EF0100E002B18BF2EF0100EF7
:100260004EF0040E704718490860EFF3148222F034
:10027000040282F3148813494FF00000086010490B
:100280004FF00100086012484FF47F01D0F80020C1
:1002900041EA020101600D484FF0805101600D48B4
:1002A0000068006880F3088862B67047EFF3098041
:1002B00000B50AF02DF85DF804EB4EF0040E70471F
:1002C00004020020FC0100200002002004ED00E0F8
:1002D00020ED00E008ED00E040EA01039B0703D0B9
:1002E00009E008C9121F08C0042AFAD203E011F875
:1002F000013B00F8013B521EF9D2704730B50B4666
:10030000014600202022012409E021FA02F59D4245
:1003100005D303FA02F5491B04FA02F52844151E19
:10032000A2F10102F1DC30BD064C074D06E0E068A9
:1003300040F0010394E8070098471034AC42F6D32C
:10034000FFF72CFF64E7000884E7000870B58C18FD
:1003500010F8015B15F0070301D110F8013B2A11D9
:1003600006D110F8012B03E010F8016B01F8016BC6
:100370005B1EF9D12B0705D40023521E0DD401F8C2
:10038000013BFAE710F8013BCB1A921C03E013F88B
:10039000015B01F8015B521EF9D5A142D8D30020C0
:1003A00070BD10B5FFF712FF0BF03AF9002010BD39
:1003B00000B585B033480078012803D132A007F09A
:1003C000BDFB02E033A007F0B9FB10202A23344A1A
:1003D0000F210090082000F07DFF324890F90020A6
:1003E00031A102A809F026FA02AA28210A2000F069
:1003F000E5FF2E480078012830D11421462000F076
:1004000057FE2821462000F029FE294800780228BE
:1004100035D10120264908702248007800230622A1
:1004200049F6624100900C2006F018F91D4800784A
:100430001449087001220021124800F09FFC00209E
:100440004FF4FA7103461B4ACDE900101AA11E4869
:100450000AF0A0FE1C480AF0B5FE10E01421462068
:1004600000F018FE2821462000F006FE1048007813
:10047000022804D100200E4908701449087005B004
:1004800000BD0000C5000020413C3E422C412069D7
:1004900073203100413C3E422C42206973203100E0
:1004A000A8C50008C40000202564000099000020B1
:1004B0009A0000209D6C0008506172616D65746542
:1004C00072496E7175727900A011002096000020AB
:1004D0005A49096821F44031594AC2F804131146B7
:1004E000D1F8041342681143544A11600168496805
:1004F00021F480710268516001684A68016942EA2A
:100500000121026851600168496821F04071026868
:10051000516001684968826811430268516001684E
:10052000896821F400610268916001688968C26885
:10053000114302689160434AC16A914218D0016830
:10054000896821F070610268916001688968C26AF7
:100550001143026891600168896821F04051026886
:10056000916001688968026B1143026891600BE039
:100570000168896821F0706102689160016889688A
:1005800021F04051026891600168896821F0020100
:100590000268916001688A68816942EA41010268E3
:1005A0009160416AD1B10168496841F40061026813
:1005B00051600168496821F4604102685160016836
:1005C0004A68816A491E4FF4604393FAA3F3B3FA71
:1005D00083F399400A4301684A6005E0016849686D
:1005E00021F40061026851600168C96A21F4700158
:1005F0000268D1620168CA6A018C491E42EA01514F
:100600000268D1620168896821F400710268916012
:1006100001688A68C16942EA412102689160016803
:10062000896821F480610268916001688A68416983
:1006300042EA812102689160704700000423014072
:10064000002001400100000F10B5002001F04AF821
:100650000E490880084600880D49096808440C497D
:1006600008600C480078401C0A4908700846007869
:10067000642809D100200870054800686421B0FB97
:10068000F1F005490968888510BD00000C010020C3
:1006900014010020180100201400002010B50D489E
:1006A0000D4908604FF48030486000210A4881609D
:1006B000C1600161416181610121016200214162EA
:1006C00081620649C16200210163C16101F096F9AE
:1006D00010BD000000200140CC0B00200100000FE5
:1006E00010B504A007F02AFA06A223210F2000F07B
:1006F00065FE10BD4261636B4C6967687420536589
:10070000747570005761697420466F722044657675
:10071000656C6F702100000010B504A007F00EFAA0
:1007200007A223210F2000F049FE10BD4261636B38
:100730004C6967687454696D6528312D352900004E
:100740005761697420466F7220446576656C6F70DE
:100750002100000000BFFEE71CB5234800780128F7
:1007600040DD214800780A283CDA1F480078801EC6
:10077000082828D2DFE800F004080C1014181D2205
:1007800005201A4908801EE00A20184908801AE04E
:1007900014201649088016E01E201449088012E033
:1007A0003C20124908800EE04FF496700F490880F3
:1007B00009E04FF416700D49088004E04FF496608C
:1007C0000A49088000BF00BF02204FF47A7100235D
:1007D000074ACDE9001007A10A480AF0DBFC0948E6
:1007E0000AF0F0FC1CBD0000DE000020E00000204C
:1007F0003D0A000844656C61795475726E6F6666D7
:1008000000000000481100201D49096801EB81012A
:1008100049001B4A116011460968014411601949D9
:100820000978491C174A117011460978032908D123
:100830000021117012490968832902D00021104A51
:1008400011600F490968832919D100210C4A1160F0
:100850005F210D4A117000210A4A11700B49097875
:1008600021F00101094A11700949097821F00101BB
:10087000074A11701146097841F002011170704762
:10088000A4000020A8000020CC010020920000203D
:1008900091000020F0B502460C46FF21FF2509E03B
:1008A00012F8016B4E40F3B2074EF65C86EA050182
:1008B000064EF55C261EA4F101073CB2F0D105EB13
:1008C0000126B0B2F0BD000036E4000836E50008AD
:1008D00010B50249486B01F0C5F910BD380300207E
:1008E00010B50249086B01F0BDF910BD38030020B6
:1008F0000146087810381823B0FBF3F20848805CF2
:100900004865032A05D908686FF30900001D0865CA
:1009100003E008686FF309000865086D7047000080
:10092000ACBC000830B50468246824F48024056851
:100930002C60046863608468402C04D10468A26061
:100940000468E16003E00468A1600468E26030BD0F
:100950000FB410B501202E49087000202D490870F1
:10096000BDF80A00801E01B203A8FFF793FF2A49D1
:10097000088008460088000A284908702648007840
:100980004870BDF80A00801E03A9085C2349097855
:10099000884237D1BDF80A00401E03A9085C1F49F0
:1009A000497888422ED19DF80D00032802D00628F0
:1009B00027D11FE001201A4908701A480078012841
:1009C00004D19DF810001849087012E0154800780D
:1009D000022806D100201349087003A806F06EF81B
:1009E00007E09DF810109DF80F0001EB00200F4963
:1009F000088006E001200E49087000200D490870AB
:100A000000BF00BF0020ADF80A0010BC5DF814FB69
:100A1000E9000020AD000020EE000020F0000020E2
:100A2000EA000020F2000020A0000020AA00002020
:100A3000EB000020E30000207047000010B50446E2
:100A40000A480088401C094908800846008808496F
:100A50000988884208D107480AF030FC00224FF488
:100A60000051054801F036FC10BD0000B200002026
:100A7000E0000020481100200008024003490978E6
:100A800021F00201014A117070470000920000201D
:100A900000BFFEE710B5002201B909E0012901D12C
:100AA0000A0205E0022901D10A0201E04FF4407276
:100AB000114B1B6823F440730F4C236023461B68C3
:100AC0001343236023461B6823F0F8032360234667
:100AD0001B68F82494FAA4F4B4FA84F400FA04F439
:100AE00044F002042343044C236023461B6843F470
:100AF0008033236010BD0000103C02401C48006899
:100B000000F40070B0B11A48006820F40070184971
:100B1000086000BF0846006840F4006008600846AE
:100B2000006820F40060086000BF0846006840F4D8
:100B3000007008600E48006800F48060B0B10C4896
:100B4000006820F480600A49086000BF0846006819
:100B500040F4805008600846006820F48050086027
:100B600000BF0846006840F48060086070470000DD
:100B7000003C024010B5024600200A4B1B6823F4DB
:100B80004073084C236023461B68034323602346BD
:100B90001B6843F00403236023461B6843F480333F
:100BA000236010BD103C0240074A126822F44072D4
:100BB000054B1A601A4612681A601A46126842F00B
:100BC00001021A6001707047103C024010B50949DB
:100BD000096821F44071074C21602146096841F4FD
:100BE000407121602146096841F0010121600260E5
:100BF000436010BD103C0240084A126822F4407263
:100C0000064B1A601A46126842F480721A601A463D
:100C1000126842F001021A6001807047103C0240E5
:100C2000084A126822F44072064B1A601A4612688B
:100C300042F400721A601A46126842F001021A6009
:100C400001607047103C02402A480068C0F3001061
:100C500040B12948C06940F010002749C861102000
:100C60002449086023480068C0F3401040B122487E
:100C7000C06940F008002049C86120201D49086073
:100C80001C480068C0F3801040B11B48C06940F0A8
:100C900004001949C86140201649086015480068D9
:100CA000C0F3C01040B11448C06940F002001249BE
:100CB000C86180200F4908600E480068C0F300201A
:100CC00048B10D48C06940F001000B49C8614FF4BC
:100CD00080700849086007480068C0F3400040B1D0
:100CE0000548C06940F020000349C861022001495D
:100CF000086070470C3C0240A002002070B504461A
:100D0000002500201749C86101F0EAFA054609E00C
:100D1000601C38B124B101F0E3FA401BA04201D9B4
:100D2000032070BD10480068C0F300400028EFD1D8
:100D30000D48006800F0010010B101200A49086068
:100D40000948006800F4F970B0F5F97F01D101207D
:100D500000E0002018B1FFF777FF0120E1E7002055
:100D6000DFE70000A00200200C3C02400146024BDD
:100D70005A18107870470000000002082DE9F0436F
:100D8000A3B004460D4616464FF00008C1460027A2
:100D900000200290574908700CE056480078FFF791
:100DA000E5FF03A9534A1278885452480078401C42
:100DB000504908704F4800788028EEDB00204D49EC
:100DC00008700BE014F8012B2846691CCDB203A96A
:100DD0000A5448480078401C464908704548007845
:100DE000B042EFDB72B601F06DF9434800F0C6FC8B
:100DF0008046414800F0C2FCA0EB080000F1010968
:100E000000203E490860022008610846C0F80880BA
:100E1000C0F80C9002A901F0A9F808B1FFF738FE5C
:100E20003748006820F4806035490860084600684B
:100E300020F40070086000BF0846006840F480504D
:100E400008600846006820F48050086000BF00BFBA
:100E50000846006840F4006008600846006820F416
:100E60000060086000BF0846006840F40070086039
:100E70000846006840F4806008601F4F00201D494C
:100E800008702BE01B48007803A911F820008DF8AA
:100E90000400184800788000401C085C8DF80500AC
:100EA000144800788000801C085C8DF8060011480A
:100EB00000788000C01C085C8DF8070000233946CC
:100EC0000220019A01F0B2F808B93F1D01E0FFF7D6
:100ED000DFFD08480078401C064908700548007886
:100EE0002028CFDB01F098F8002762B623B0BDE8D8
:100EF000F08300001901002000000208B00C00205F
:100F0000003C024000B585B02AA006F017FE102074
:100F10001C232C4A0F210090082000F0DBF92A48FE
:100F200090F9002029A102A808F084FC02AA282137
:100F30000A2000F043FA26480078012827D114211E
:100F4000462000F0B5F82821462000F087F8214817
:100F5000007802282CD101201E4908701A48007818
:100F60000023062249F6424100900C2005F076FB52
:100F700000204FF4FA710346174ACDE9001017A17B
:100F80001A480AF007F919480AF01CF910E0142170
:100F9000462000F07FF82821462000F06DF80D482B
:100FA0000078022804D100200A490870104908700E
:100FB00005B000BD466F7263653A30206F72203114
:100FC0000000000088C30008B7000020256400006E
:100FD000990000209A0000209D6C00085061726109
:100FE0006D65746572496E7175727900A01100208B
:100FF0009600002001460020164BCA1A99421FD0C5
:101000000CDC154A0A44BAB1B2F57A7F12D0B2F5B7
:10101000FA6F0DD0A2F6B832D2B90FE0B2F57A7FEE
:1010200010D0B2F5FA6F0FD0A2F6B83282B90DE047
:1010300001200DE002200BE0032009E0042007E07E
:10104000052005E0062003E0072001E0082000BF9E
:1010500000BF7047D0A60600D068F9FF38B5044637
:101060000D460E203123034A29460090204600F009
:1010700015F938BDD4CC000838B504460D460E200D
:101080003123034A29460090204600F007F938BD75
:1010900036CD000838B504460D460E203123034AEC
:1010A00029460090204600F0F9F838BD10CC000821
:1010B00038B504460D460E203123034A29460090D8
:1010C000204600F0EBF838BD72CC000804490878DF
:1010D00004490978024A11700249087070470000FB
:1010E000F8000020F900002010B505F0EFFB10BD5E
:1010F0002DE9F0410446884615461E46AC4202DD05
:10110000EFB225463C4600BF32464146204600F03D
:1011100001F9601C84B2A542F6DABDE8F08110B591
:1011200003F0CAFD0021012000F0C6F910BD2DE931
:10113000FF4F81B004460D460398071B0498A0EBAF
:101140000508002F02DD4FF001090EE0002F02DA42
:101150004FF0FF3909E0049BDAB2E9B2A0B20E9B6E
:1011600000F040F905B0BDE8F08FB8F1000F02DDE6
:101170004FF0010A0DE0B8F1000F02DA4FF0FF3A2C
:1011800007E0039B9AB2E9B2A0B20E9BFFF7B0FF53
:10119000E8E707FB09F708FB0AF84FEA470B4FEAB5
:1011A0004800009047451BDB0098C61B0FE0E9B2E2
:1011B000A0B20E9A00F0AEF84C44002E02DA00986D
:1011C000064404E00098A0EB0B0006445544039845
:1011D0008442ECD1E9B2A0B20E9A00F09BF819E07B
:1011E000ABEB08060EE0E9B2A0B20E9A00F092F85E
:1011F0005544002E01DA5E4404E00098ABEB000099
:1012000006444C4404988542EDD1E9B2A0B20E9A4E
:1012100000F080F800BFA5E72DE9F04705460E462F
:10122000174698464FF00009802D02D30020BDE8F4
:10123000F087402E01D30020F9E7002423E0E117D6
:1012400004EB5171C910A4EBC10109B917F8019B56
:1012500004F007000E49085C00EA090018B90D48BF
:1012600090F800A002E00C4890F800A0F1B2A8B2FB
:10127000524600F04FF8681C0546802801D3002034
:10128000D5E7601CC4B24445D9D30120CFE70000A4
:1012900008CC0008F9000020F80000202DE9F047F4
:1012A00080460E4614461D46DDF8209000270DE0CE
:1012B0002B46224631464046FFF7AEFF761C04EB34
:1012C000D50405F0070000B1641C7F1C4F45EFD327
:1012D000BDE8F0872DE9F04780460E4614461D46CE
:1012E000DDF82090FFF7F2FE00270DE02B462246A6
:1012F00031464046FFF790FF761C04EBD50405F01D
:10130000070000B1641C7F1C4F45EFD3FFF7DEFEE2
:10131000BDE8F08770B504460D461646E0B2324689
:10132000294605F0A3FA70BD2DE9F04704460E46A4
:101330001546782C02D90020BDE8F087382E01D957
:101340000020F9E7202D01DB7F2D00DD2025A5F110
:101350002000C5B2002725E0144800EBC50010F8B6
:1013600007904FF0000816E0114810F8080000EA56
:10137000090018B90F4890F800A002E00E4890F854
:1013800000A0F1B2A0B25246FFF7C4FF641C08F1FE
:10139000010000F0FF08B8F1060FE5DB761CA41F82
:1013A000781CC7B2082FD7DB0120C5E708C90008A1
:1013B00008CC0008F9000020F800002070B50546B0
:1013C0000E4614460BE0207800B909E014F8012B12
:1013D00031462846FFF7A8FF00B901E0AD1DF2E74E
:1013E00000BF70BD2DE9F04180460C4615461E46F3
:1013F000AC4202DD2F4625463C4600BF3246214620
:101400004046FFF787FF601CC4B2A542F6DABDE88C
:10141000F0812DE9F04104460D4616461F46DDF8E1
:101420001880B2B2E9B2A0B24346FFF761FEB2B291
:10143000F9B2A0B24346FFF75BFEFAB2E9B2A0B23E
:101440004346FFF7CFFFFAB2E9B2B0B24346FFF727
:10145000C9FFBDE8F0812DE9F04705460C46164668
:101460001F46DDF82090B54202D9A84635464646CB
:10147000BC4202D9A0463C464746BC4207D1B2B264
:10148000E1B2A8B24B46FFF733FEBDE8F087B542A4
:1014900006D1FAB2E1B2A8B24B46FFF7A3FFF4E7D8
:1014A00006E0B2B2E1B2A8B24B46FFF721FE641CDF
:1014B000BC42F6D900BFE8E7024A1070024A117038
:1014C00070470000F8000020F90000202DE9F843E3
:1014D0000446A068142802D3E068142802D2002031
:1014E000BDE8F883A16820680844802801D900205D
:1014F000F6E7E16860680844402801D90020EFE77A
:10150000604800780090D4F804C0D4F80C90CC4423
:10151000ACF10103D4F800C0D4F80890CC44ACF18D
:101520000102D4E90001FFF796FF574800780090C8
:10153000D4F804C0D4F80C90CC44ACF10103D4F836
:1015400000C0D4F80890CC44ACF10102D4E9000109
:10155000FFF75FFF2388B4F808C063445B1E9AB2AC
:1015600023790C33D9B2238898B2474B1B78FFF705
:10157000BFFD23790C33DAB2217923880C3398B27A
:10158000414B1B78FFF72EFF3F4800780090D4F8BE
:1015900004C00CF10C03D4F800C00CF10C0260463E
:1015A0006168FFF7C4FD384800780090D4F804C0A3
:1015B0000CF10C036146226802F10C00FFF7B7FD45
:1015C0002069E0B12569206800F10F06606800F12C
:1015D0000308A16820680844471E0EE006F10800D1
:1015E000B84200DD0AE0287800B907E015F8012BC1
:1015F00041463046FFF798FEB61DEFE700BF606931
:1016000098B3E0683C2801D2002069E72388B4F849
:1016100008C063445B1E9AB2237994F80CC06344FB
:101620000B3BD9B2238898B2174B1B78FFF760FDAC
:1016300065692068C61CE16860680844A0F1090873
:10164000A16820680844471E0EE006F10800B84271
:1016500000DD0BE0287800B908E015F8012B4146C1
:101660003046FFF761FEB61DEFE700E000BFE0691E
:1016700028B1E569617E207E2A4604F049FF0120F9
:101680002EE70000F9000020F8000020F8B504461D
:10169000A068142802D3E068142801D20020F8BD05
:1016A000A16820680844802801D90020F7E7E16894
:1016B00060680844402801D90020F0E70848007815
:1016C0000090E668656835446B1EA6682568354459
:1016D0006A1ED4E90001FFF7BEFE0120DFE700002B
:1016E000F90000201FB50446009401200190072056
:1016F0000290002003906946074800F0B1F80648C0
:1017000000F01CFA0A21044800F0D6F9024800F063
:1017100071F980B204B010BDCC0B002010B50446A6
:10172000044A32F81410044A52F8240000F0CAFDAA
:1017300010BD00000CE400085C0100200C480068AB
:101740000C4908600A48001D0068486008480830D5
:1017500000688860084600684008496800EB91000E
:101760000449896800EBD100034908607047000014
:10177000E8F7FF1F38180020F40000200146002081
:10178000144A914203D2B1F1006F00D320E0124A13
:10179000914204D20F4A914201D3012018E00F4A2E
:1017A000914204D20C4A914201D3022010E00C4A2B
:1017B000914204D2094A914201D3032008E0094A28
:1017C000914204D2064A914201D3042000E0052050
:1017D00070470000004000080080000800C00008BA
:1017E000000001080000020800B587B000BF00201B
:1017F00001901948006840F0040017490860084645
:10180000006800F00400019000BF00BF42F2F03019
:1018100002900120039004900220059002A90F4835
:1018200000F066FC00224FF480710C4800F052FD7D
:1018300000224FF40071094800F04CFD00224FF4E3
:101840000051064800F046FD01228021034800F0C7
:1018500041FD07B000BD00003038024000080240E2
:1018600018B502460020009000BF92F83C00012805
:1018700001D1022018BD012082F83C0000BF086899
:10188000092816D91068C0680B780A3B03EB43049B
:101890000723A34098431368D8600B780A3B03EBF7
:1018A0004303886898401368DB6818431368D8605E
:1018B00013E0106800690B7803EB43040723A3408F
:1018C0009843136818610B7803EB430388689840CA
:1018D00013681B691843136818614868072817D2F2
:1018E0001068406B0B795B1E03EB83041F23A3403E
:1018F000984313685863088880B20B795B1E03EB2A
:101900008303984013685B6B18431368586331E096
:1019100048680D2817D21068006B0B79DB1F03EBAA
:1019200083041F23A340984313681863088880B278
:101930000B79DB1F03EB8303984013681B6B184381
:101940001368186316E01068C06A0B790D3B03EB4F
:1019500083041F23A34098431368D862088880B289
:101960000B790D3B03EB830398401368DB6A184344
:101970001368D8621B4B1068984208D10868122877
:1019800005D11948006840F48000C3F80403154BE2
:10199000106898421ED10868102802D008681128E3
:1019A00018D11148006840F400000F4B1860086817
:1019B00010280FD10D4800680D4BB0FBF3F000EB81
:1019C00080004000009002E00098401E00900098C7
:1019D0000028F9D100BF002082F83C0000BF00BF02
:1019E00048E7000000200140042301400C000020D3
:1019F00040420F0001460868C06C704710B50446AD
:101A00000CB9012010BD1049E06A884200D000BF27
:101A100094F83D0028B9002084F83C00204600F0EE
:101A200015F8022084F83D002046FEF751FD002005
:101A30002064012084F83D0000BF002084F83C00B1
:101A400000BF00BFDEE700000100000F10B586B048
:101A5000044600BF002000901548006840F00400D4
:101A6000134908600846006800F00400009000BFB9
:101A700000BF00BF002000900D481430006840F403
:101A800080700B49143108600846006800F48070CB
:101A9000009000BF00BF01200190032002900020B1
:101AA000039001A9034800F023FB06B010BD00001D
:101AB000303802400008024070B504460D4600264A
:101AC0002068806800F4806070B12068806800F44D
:101AD000807048B1042084F83D0000BF002084F8E5
:101AE0003C0000BF012070BD00F0FAFB064611E08B
:101AF000681C78B125B100F0F3FB801BA84209D91E
:101B0000032084F83D0000BF002084F83C0000BFA3
:101B10000320E8E72068006800F002000228E7D10F
:101B200094F83D00252803D1352084F83D0002E0DB
:101B3000152084F83D000020D5E7000008B50146D7
:101B40000020009000BF91F83C00012801D1022044
:101B500008BD012081F83C0000BF91F83D0022281B
:101B600003D1322081F83D0002E0122081F83D00CF
:101B70000868806800F00100A0B90868806840F03B
:101B800001000A6890601B4800681B4AB0FBF2F035
:101B900000EB4000009002E00098401E009000988A
:101BA0000028F9D100BF002081F83C0000BF134895
:101BB000006800F01F0058B90868806800F04050C5
:101BC000A8B90868806840F080400A6890600EE01C
:101BD0000B4A086890420AD10868806800F04050BB
:101BE00028B90868806840F080400A68906000204A
:101BF000AEE700000C00002040420F00042301402B
:101C00000020014070B5044600252068006820F0DF
:101C100001002168086000F063FB054612E000F057
:101C20005FFB401BB0F57A7F0CD9E06C40F02000E0
:101C3000E06400BF002084F8340000BF032084F873
:101C4000350070BD2068006800F001000028E6D172
:101C500000BF84F8340000BF012084F83500002064
:101C6000EFE7000070B50446256D286894F854200D
:101C700008219140084000B32068006800F004008B
:101C8000D8B12068006820F004002168086094F84A
:101C9000541008208840A860E06C40F00100E06427
:101CA000042084F8350000BF002084F8340000BF11
:101CB000A06C10B12046A16C8847286894F8542085
:101CC0006D499140084000B32068406900F08000F1
:101CD000D8B12068406920F080002168486194F8FC
:101CE000541065488840A860E06C40F00200E06451
:101CF000042084F8350000BF002084F8340000BFC1
:101D0000A06C10B12046A16C8847286894F8542034
:101D10005949C91C9140084008B32068006800F088
:101D20000200E0B12068006820F00200216808602D
:101D300094F854105048C01C8840A860E06C40F0F3
:101D40000400E064042084F8350000BF002084F81B
:101D5000340000BFA06C10B12046A16C88472868F1
:101D600094F85420102191400840C0B320680068C6
:101D700000F0080098B32068006800F48020B0B13B
:101D800094F8541010208840A8602068006800F47F
:101D9000002018B9312084F835001BE02068006865
:101DA00000F40020B0B1412084F8350012E0206832
:101DB000006800F4807028B92068006820F00800EE
:101DC0002168086094F8541010208840A8603120E1
:101DD00084F83500206C10B12046216C88472868B3
:101DE00094F8542020219140084018B320680068DE
:101DF00000F01000F0B12068006800F48020D0B13D
:101E000094F8541020208840A8602068006800F4EE
:101E1000002028B9606C68B12046616C884729E0D1
:101E20002068006800F4002020B1E06B10B120466B
:101E3000E16B88471EE02068006800F4807028B9D4
:101E40002068006820F010002168086094F85410A1
:101E500020208840A860E06CE064112084F8350000
:101E600000BF002084F8340000BFE06B10B12046B2
:101E7000E16B884770BD00000100800070B504462A
:101E800000250CB9012070BD606A00B100BF0220BE
:101E900084F835002068056818480540D4E9010138
:101EA0000843E16808432169084361690843A1695F
:101EB0000843E1690843216A08430543606A04282E
:101EC00003D1D4E90B01084305432068056020686D
:101ED000456925F00705606A0543606A042801D159
:101EE000A06A0543206845612046FEF701FD0020F9
:101EF000E064012084F835000020C4E73F8010F042
:101F00002DE9F04104460D4616461F4600BF94F8E1
:101F10003400012802D10220BDE8F081012084F8BC
:101F2000340000BF022084F835002068006820F0EB
:101F30000100216808603B46324629462046FEF7EC
:101F4000F1FC2068006840F01E00216808602068ED
:101F5000406940F08000216848612068006840F0D6
:101F60000100216808600020D6E700002DE9F0415B
:101F700004460E460127002500BF2548007E0128A3
:101F800002D10220BDE8F08101202149087600BF7E
:101F90004CF25030FEF7B2FE0746002F31D1401E02
:101FA0003060206801280FD1207C6168FEF7E2FDD7
:101FB0004CF25030FEF7A2FE07461648006820F0AB
:101FC0000400144908601AE0A56812E0217C284644
:101FD000FEF760FD4CF25030FEF790FE07460D48CC
:101FE000006820F0FA000B4908600FB1356005E089
:101FF0006D1CD4E902100844A842E7D800BFFEF7E0
:102000007DFD00BF00200249087600BF3846B9E7D1
:10201000A0020020103C02400348006840F000404D
:102020000149086000207047103C02402DE9F04152
:1020300006460F4614461D464FF0010800BF1F48D4
:10204000007E012802D10220BDE8F08101201B4959
:10205000087600BF4CF25030FEF750FE8046B8F1D3
:10206000000F23D126B9E1B23846FEF79DFD12E0FC
:10207000012E04D1A1B23846FEF7BEFD0BE0022EC0
:1020800004D121463846FEF7CBFD04E022462B461C
:102090003846FEF79BFD4CF25030FEF72FFE80468F
:1020A0000748006820F001000549086000BF0020D3
:1020B0000249087600BF4046C6E70000A0020020A3
:1020C000103C02400748006800F0004030B106486C
:1020D00004490C3908600548086001E00120704798
:1020E0000020FCE7103C024023016745AB89EFCD9F
:1020F000F8B503460A460025002400200021CDE063
:10210000012606FA01F5166806EA0504AC4273D109
:102110005668022E02D05668122E13D1CF0803F152
:10212000200656F827004E07F70E0F26BE40B04394
:102130004F07FF0E1669BE403043CF0803F120065B
:1021400046F8270018684F000326BE40B0431679B2
:1021500006F003064F00BE40304318605668012E5B
:1021600008D05668022E05D05668112E02D0566847
:10217000122E13D198684F000326BE40B0434F0083
:10218000D668BE4030439860586801268E40B04300
:102190001679C6F300168E4030435860D8684F0059
:1021A0000326BE40B0434F009668BE403043D8601F
:1021B000566806F08056B6F1805F6ED100BF0026EB
:1021C0000096384E366846F48046364F3E603E46AE
:1021D000366806F48046009600BF00BF324E8F0876
:1021E00056F827008E07370F0F26BE40B0432F4EFC
:1021F000B34202D1002615E04FE02D4EB34201D18B
:1022000001260FE02B4EB34201D102260AE02A4EEE
:10221000B34201D1032605E0284EB34201D1042682
:1022200000E005268F073F0FBE4030431E4E8F084B
:1022300046F82700224E3068A043566806F48036E0
:10224000B6F5803F00D120431D4E3060361D30680A
:10225000A043566806F40036B6F5003F00D120438F
:10226000174E361D3060361D3068A043566806F4A0
:102270008016B6F5801F00D12043114E083630601D
:10228000361D3068A043566806F40016B6F5001FE8
:1022900000D120430A4E0C363060491C1029FFF44F
:1022A0002FAFF8BD4438024008380140000002401A
:1022B0000004024000080240000C024000100240EE
:1022C000003C0140024613690B400BB1012000E0C5
:1022D000002070470AB1816101E00B0483617047FF
:1022E000014800687047000010000020014691F886
:1022F0003500704770B50446002600250CB9012052
:1023000070BD94F8350028B9002084F834002046C8
:1023100000F080F8022084F835002068006820F082
:1023200001002168086000F011FF05463748B5FB41
:10233000F0F62068466036496068884201D8701C13
:1023400007E04FF4967070434FF47A71B0FBF1F0F0
:10235000401C216808622E49606888420ED8606877
:102360004000B5FBF0F0C0F30B00042801D20420BC
:102370002DE060684000B5FBF0F028E0A06828B9C7
:10238000606800EB4000B5FBF0F008E0606800EB2F
:10239000C00101EB0010B5FBF0F040F48040C0F349
:1023A0000B0008B9012012E0A06828B9606800EBB2
:1023B0004000B5FBF0F008E0606800EBC00101EB05
:1023C0000010B5FBF0F040F4804040F4004021687C
:1023D000C861D4E90701084321680860D4E9031003
:1023E000084321688860D4E9050108432168C86072
:1023F0002068006840F00100216808600020A063A8
:10240000012084F8350000207AE7000040420F00E8
:10241000A08601007047000002480068401C014986
:10242000086070471000002010B50D48006840F4A7
:1024300000700B4908600846006840F4806008603E
:102440000846006840F480700860032000F06CF8D3
:102450000F2000F007F800F017F8002010BD000072
:10246000003C024070B5044600F054FE4FF47A710F
:10247000B0FBF1F5284601F058FB00222146501E22
:1024800000F014F8002070BD08B50020009000BFD7
:1024900008BD00BF00F01F020121914042099200D7
:1024A00002F1E022C2F8001100BF70472DE9F05F91
:1024B00080460D461646002704F0BCF9074639460B
:1024C0002A46334601F00700C0F1070ABAF1040FAB
:1024D00002D94FF0040A01E0C0F1070AD14600F129
:1024E000040ABAF1070F02D24FF0000A01E0A0F18E
:1024F000030AD4464FF0010A0AFA09FAAAF1010ABE
:102500000AEA020A0AFA0CFA4FF0010B0BFA0CFB6A
:10251000ABF1010B0BEA030B4AEA0B0421464046E0
:1025200004F090F9BDE8F09F00BF00F00702064BF1
:1025300019684FF6FF031940044B0B4343EA02218D
:10254000014B196000BF70470CED00E00000FA0578
:1025500010B50446D4F8B40306F038FA10BD70B5CF
:1025600004460D46C5EBC50304F1380101EB8301B8
:10257000CA682946D4F8B40306F078F970BD70B57E
:1025800004460D46C5EBC50304F5EE7101EB83016E
:10259000CA682946D4F8B40306F0D5F970BD10B561
:1025A0000446D4F8B40306F014FA10BD70B504461E
:1025B0000D4605F08000802808D105F07F00C0EBB3
:1025C000C00104F1380000EB810605E0C5EBC50150
:1025D00004F5EE7000EB81060020B07005F07F007E
:1025E0003070C5F3C010707000BF94F880030128EC
:1025F00001D1022070BD012084F8800300BF314664
:10260000206806F03BFE00BF002084F8800300BF76
:1026100000BFEFE72DE9F04705460E4690461F46FE
:102620004FF0000906F08000802808D106F07F00F6
:10263000C0EBC00105F1380000EB810407E006F0B3
:102640007F00C0EBC00105F5EE7000EB810406F0E1
:102650007F00207006F08000C0096070C4F8088018
:10266000E770607808B12078E080022F01D1002067
:10267000207100BF95F88003012802D10220BDE837
:10268000F087012085F8800300BF2146286806F006
:1026900077FC00BF002085F8800300BF4846EEE7C6
:1026A0002DE9F04104460E461746984606F07F0095
:1026B000C0EBC00104F5EE7000EB8105EF60C5F8DA
:1026C00014800020A861687006F07F0028702069DF
:1026D000012800D12F6100BF94F88003012802D1A6
:1026E0000220BDE8F081012084F8800300BF06F0DD
:1026F0007F0028B9227C2946206806F0C5FC04E04A
:10270000227C2946206806F043FE00BF002084F8A2
:10271000800300BF00BFE4E770B504460D4605F036
:102720008000802808D105F07F00C0EBC00104F1D3
:10273000380000EB810605E0C5EBC50104F5EE703D
:1027400000EB81060120B07005F07F003070C5F30A
:10275000C010707000BF94F88003012801D10220DE
:1027600070BD012084F8800300BF3146206806F068
:10277000C9FD05F07F0028B9217C04F5617220684D
:1027800006F05AFD00BF002084F8800300BF00BFA0
:10279000E6E72DE9F04104460E461746984606F056
:1027A0007F00C0EBC00104F1380000EB8105EF6051
:1027B000C5F814800020A8610120687006F07F0031
:1027C00028702069012800D12F6100BF94F8800390
:1027D000012802D10220BDE8F081012084F88003A5
:1027E00000BF06F07F0028B9227C2946206806F049
:1027F0004BFC04E0227C2946206806F0C9FD00BF9E
:10280000002084F8800300BF00BFE4E72DE9F84F03
:10281000044626684FF0000AD346D0460025002023
:1028200000900027206806F055FF00286BD1206833
:1028300006F088FF08B9BDE8F88F206806F082FF2F
:1028400000F00200022805D12068406900F0020073
:1028500021684861206806F075FF00F40020B0F59B
:10286000002F7CD10025206806F042FF834673E0EC
:102870000BF0010000286CD0E9B2206806F057FF89
:10288000804608F00100E8B3012106F5306000EB56
:1028900045108160206901282BD1C5EBC50104F5E5
:1028A000EE7000EB8100816806F5306000EB4510AA
:1028B0000069C0F31200091AC5EBC50204F5EE70F9
:1028C00000EB82008161C5EBC50104F5EE7000EB01
:1028D0008100C5EBC502C16804F5EE7000EB820013
:1028E00080680144C5EBC50204F5EE7000EB820080
:1028F000C160E9B22046FFF742FE2069012811D1EC
:1029000005B901E00EE02EE2C5EBC50104F5EE705D
:1029100000EB8100406928B904F56172012120684B
:1029200006F08AFC08F00800082808D1204600F0CC
:1029300076FA082106F5306000EB4510816008F05A
:102940001000102805D1102106F5306000EB45106D
:1029500081606D1C4FEA5B0BBBF1000F88D12068D2
:1029600006F0F0FE00F48020B0F5802F7ED12068C4
:1029700006F0B5FE8346002583E00BF00100002839
:102980007CD0E9B2206806F0BCFE804608F0010069
:10299000F0B30120A840009040F63400805900991F
:1029A000884340F634018851012106F5106000EBA0
:1029B000451081602069012815D1C5EBC50104F1DE
:1029C000380000EB8100C5EBC502C16804F1380096
:1029D00000EB820080680144C5EBC50204F13800B9
:1029E00000EB8200C160E9B22046FFF7B8FD206924
:1029F000012810D165B9C5EBC50104F1380000EB21
:102A00008100406920B904F561720121206800E06D
:102A100001E006F011FC08F00800082805D10821A3
:102A200006F5106000EB4510816008F010001028DA
:102A300005D1102106F5106000EB4510816008F00B
:102A40004000402805D1402106F5106000EB4510FC
:102A5000816008F00200022805D1022106F510600D
:102A600000EB4510816008F0800001E00DE005E01A
:102A7000802803D12946204603F0C8FF6D1C4FEA89
:102A80005B0BBBF1000F7FF478AF206806F05AFEB5
:102A900000F00040B0F1004F10D140F60400805922
:102AA00020F0010140F604008151204600F090F929
:102AB0002068406900F0004021684861206806F005
:102AC00041FE00F40060B0F5006F0ED140F6080042
:102AD000805900F0010010B1204600F0A9F92068EB
:102AE000406900F4006021684861206806F02AFE11
:102AF00000F48050B0F5805F5CD140F6040080594E
:102B000020F0010140F6040081510021206806F008
:102B1000A7FD4FF0000A0CE0FF2106F5106000EB66
:102B20004A10816006F5306000EB4A1081600AF1BE
:102B3000010A60685045EFD84FF0FF3140F61800A9
:102B40008151001D805940F0011140F61C00815157
:102B5000206B70B1D6F8840840F00B01C6F88418D9
:102B600040F64400805940F00B0140F6440081518A
:102B70000EE040F61400805940F00B0140F61400BE
:102B80008151001F805940F00B014FF401608151C9
:102B9000D6F8000820F4FE60C6F80008217C04F591
:102BA0006172206806F048FB2068406900F480509C
:102BB00021684861206806F0C5FD00F40050B0F5BA
:102BC000005F2BD1206806F03DFA2068C06820F431
:102BD00070502168C860206806F05AFD58B900217D
:102BE000E1604FF4007161612068C06840F41050EA
:102BF0002168C86009E00321E1604021616120682B
:102C0000C06840F4A0502168C860204600F0BFF8BA
:102C10002068406900F4005021684861206806F08F
:102C200091FD00F01000102843D12068806920F049
:102C3000100021688861376A07F00F00C0EBC001FF
:102C400004F5EE7000EB8109C7F34340022819D167
:102C500047F6F070384030B3C7F30A123046D9F85F
:102C60000C1006F075FDC7F30A11D9F80C000844E2
:102C7000C9F80C00C7F30A11D9F818000844C9F8BC
:102C8000180010E0C7F3434006280CD1082204F5D1
:102C90006171304606F05CFDC7F30A11D9F81800DF
:102CA0000844C9F818002068806940F010002168C5
:102CB0008861206806F046FD00F00800082808D169
:102CC000204600F08CF82068406900F00800216878
:102CD0004861206806F036FD00F48010B0F5801FD2
:102CE00009D1E9B2204600F040F82068406900F4BC
:102CF000801021684861206806F024FD00F400106F
:102D0000B0F5001F09D1E9B2204600F037F820687D
:102D1000406900F4001021684861206806F012FD47
:102D200000F08040B0F1804F08D12046FFF710FC42
:102D30002068406900F0804021684861206806F002
:102D400001FD00F0040004280DD12068476807F059
:102D50000400042802D12046FFF721FC20684068C7
:102D600038432168486000BF65E570B504460D46EC
:102D70002946D4F8B40305F055FE70BD70B504467D
:102D80000D462946D4F8B40305F04FFE70BD70B56A
:102D90000446D4F8B4530126E06810B1022804D1E7
:102DA00001E0002603E0012601E0012600BF00BF8C
:102DB0003146D4F8B40305F095FE40212963C5F8E7
:102DC000201108212964D4F8B40305F051FE70BD28
:102DD00010B50446D4F8B40305F06CFE10BD10B570
:102DE0000446D4F8B40305F06CFE10BD70B504467B
:102DF0000D4600BF94F88003012801D1022070BD68
:102E0000012084F8800300BF2946206806F0B4FC46
:102E100000BF002084F8800300BF00BFEFE710B5BB
:102E2000044604F56171D4F8B40305F069FE10BDE1
:102E300010B50446D4F8B40305F0A3FE2068D0F81A
:102E4000000E40F001002168C1F8000E206A28B190
:102E50000348006840F006000149086010BD00000A
:102E600010ED00E070B504460E460025A748006846
:102E700000F00F00B0426FD2A4490E7008460068FF
:102E800000F00F00B04201D0012070BD207800F0AA
:102E90000200022807D19E48006820F0F000A168D7
:102EA00008439B490860207800F0010000283ED0CC
:102EB0006068012807D1964808380068C0F3404090
:102EC000B8B90120E1E76068022802D060680328F1
:102ED00007D18F4808380068C0F3406048B9012026
:102EE000D3E78B4808380068C0F3400008B90120D8
:102EF000CBE78748006820F00300616808438449F5
:102F00000860FFF7EDF905466068012810D108E078
:102F1000FFF7E6F9401B41F28831884201D90320CE
:102F2000B3E77B48006800F00C000428F0D1CDE046
:102F30006068022811D108E0FFF7D2F9401B41F286
:102F40008831884201D903209FE77148006800F06A
:102F50000C000828F0D1B9E024E06068032810D103
:102F600008E0FFF7BDF9401B41F28831884201D9E2
:102F700003208AE76648006800F00C000328F0D1BF
:102F8000A4E008E0FFF7ACF9401B41F28831884229
:102F900001D9032079E75E48006800F00C000028A2
:102FA000F0D193E0207800F00200022807D15848C1
:102FB000006820F0F000A1680843554908602078B7
:102FC00000F00100002877D06068012807D1504840
:102FD00008380068C0F34040B8B9012055E7606880
:102FE000022802D06068032807D1494808380068E1
:102FF000C0F3406048B9012047E7454808380068F9
:10300000C0F3400008B901203FE74148006820F0C4
:103010000300616808433E490860FFF761F905460F
:103020006068012810D108E0FFF75AF9401B41F20F
:103030008831884201D9032027E73548006800F02D
:103040000C000428F0D137E06068022810D108E0B5
:10305000FFF746F9401B41F28831884201D903202D
:1030600013E72B48006800F00C000828F0D123E09B
:103070006068032810D108E0FFF732F9401B41F2E5
:103080008831884201D90320FFE62148006800F01A
:103090000C000328F0D10FE008E0FFF721F9401BF6
:1030A00041F28831884201D90320EEE618480068D1
:1030B00000F00C000028F0D114490E70084600689A
:1030C00000F00F00B04201D00120DEE6207800F0D1
:1030D0000400042807D10E48006820F4E050E1689D
:1030E00008430B490860207800F00800082808D140
:1030F0000748006820F46040216940EAC1000449A3
:1031000008600F20FFF7AEF90020BEE6003C024049
:103110000838024010B500F045F80949096801F087
:10312000F001F02292FAA2F2B2FA82F2D140054AFC
:10313000515CC840044908600846006810BD0000A2
:10314000083802409CBC00080C00002010B5FFF7B6
:10315000E1FF0749096801F4E0514FF4E05292FAA7
:10316000A2F2B2FA82F2D140024A515CC84010BDCC
:10317000083802409CBC000810B5FFF7CBFF074998
:10318000096801F460414FF4604292FAA2F2B2FA87
:1031900082F2D140024A515CC84010BD083802405A
:1031A0009CBC000870B50021002200230020274CA1
:1031B000246804F00C0424B1042C04D0082C41D160
:1031C00003E0234840E023483EE0204C241F2468CD
:1031D00004F03F011D4C241F246804F4800484B1D2
:1031E0001C4CB4FBF1F5194C241F246847F6C0763B
:1031F000344096FAA6F6B6FA86F6F44005FB04F2D9
:103200000FE0134CB4FBF1F5104C241F246847F673
:10321000C076344096FAA6F6B6FA86F6F44005FB78
:1032200004F20A4C241F246804F440344FF440355F
:1032300095FAA5F5B5FA85F5EC40641C6300B2FB80
:10324000F3F001E0024800BF00BF70BD0838024043
:103250000024F40000127A0038B5044600252078D6
:1032600000F00100002866D0F748006800F00C006C
:1032700004280DD0F448006800F00C00082813D191
:10328000F148001F006800F48000B0F5800F0BD1FA
:10329000ED4808380068C0F3404000284BD0606813
:1032A000002848D1012038BD0020E749891F087057
:1032B000FFF716F8054608E0FFF712F8401B41F249
:1032C0008831884201D90320EDE7DF4808380068DB
:1032D000C0F340400028EFD12079DB49891F0870F6
:1032E0006068A0B1FEF7FCFF054608E0FEF7F8FFB6
:1032F000401B41F28831884201D90320D3E7D248EC
:1033000008380068C0F340400028EFD013E0FEF713
:10331000E7FF054608E0FEF7E3FF401B41F2883176
:10332000884201D90320BEE7C74808380068C0F3C7
:1033300040400028EFD1207800F00200022869D137
:10334000C148006800F00C0058B1BF48006800F0A8
:103350000C00082821D1BC48001F006800F4800040
:10336000D8B9B94808380068C0F3400020B1E06817
:10337000012801D0012096E7B3480838006820F002
:10338000F800F82292FAA2F2B2FA82F22169914090
:103390000843AD49083908603CE0E06828B30120E3
:1033A000AA490860FEF79CFF054606E0FEF798FF75
:1033B000401B642801D9032075E7A348083800683A
:1033C000C0F340000028F1D09F480838006820F082
:1033D000F800F82292FAA2F2B2FA82F22169914040
:1033E000084399490839086014E0002097490860AB
:1033F000FEF776FF054606E0FEF772FF401B6428E5
:1034000001D903204FE7904808380068C0F3400016
:103410000028F1D1207800F0080008282CD160693C
:10342000A8B101208A490860FEF75AFF054606E068
:10343000FEF756FF401B642801D9032033E782487A
:103440006C300068C0F340000028F1D014E0002088
:103450007F490860FEF744FF054606E0FEF740FF9F
:10346000401B642801D903201DE777486C300068B1
:10347000C0F340000028F1D1207800F004000428B7
:103480006FD100BF002000906F483830006840F0D6
:1034900080506D49383108600846006800F080505F
:1034A000009000BF00BF6B48006840F4807069491D
:1034B0000860FEF715FF054606E0FEF711FF401B0A
:1034C000642801D90320EEE66248006800F48070A9
:1034D0000028F2D000205C4968310870FEF700FF38
:1034E000054608E0FEF7FCFE401B41F288318842A9
:1034F00001D90320D7E6544868300068C0F3400083
:103500000028EFD1207A504968310870A068A0B136
:10351000FEF7E6FE054608E0FEF7E2FE401B41F23C
:103520008831884201D90320BDE6474868300068E9
:10353000C0F340000028EFD013E0FEF7D1FE0546AF
:1035400008E0FEF7CDFE401B41F28831884201D9E8
:103550000320A8E63C4868300068C0F3400000281B
:10356000EFD1A069F0B33848006800F00C000828DB
:1035700072D0A069022850D1002034490866FEF7B5
:10358000AFFE054606E0FEF7ABFE401B642801D9FE
:10359000032088E62C4808380068C0F34060002803
:1035A000F1D1D4E90701084347F6C07292FAA2F2BA
:1035B000B2FA82F2616A914008430122A16AC2EB29
:1035C00051014FF4403292FAA2F2B2FA82F29140E3
:1035D00008434FF0706292FAA2F2B2FA82F2E16A04
:1035E000914000E03AE008431749091F08600120B4
:1035F00016490866FEF774FE054606E0FEF770FE03
:10360000401B642801D903204DE60F4808380068A4
:10361000C0F340600028F1D020E000200B4908668C
:10362000FEF75EFE054606E0FEF75AFE401B6428E4
:1036300001D9032037E6044808380068C0F3406029
:103640000028F1D10AE007E00838024000004742B4
:10365000800E474200700040012024E6002022E650
:1036600010B504460CB9012010BD2068006820F098
:10367000400021680860204600F04EF80020606598
:1036800084F8510000BF84F8500000BF00BFEBE792
:1036900010B504460CB9012010BD94F8510028B9AA
:1036A000002084F85000204600F038F8022084F80A
:1036B00051002068006820F0400021680860D4E9CB
:1036C00001010843E168084321690843616908432F
:1036D000218B01F400710843E1690843216A084322
:1036E000A16A0843216808600421A06901EA10402A
:1036F000616A0843216848602168E06A08612068BF
:10370000C06920F400602168C86100206065012064
:1037100084F851000020BFE77047000010B586B064
:10372000044600BF002000901F48006840F00100E0
:103730001D4908600846006800F00100009000BFC5
:1037400000BF00BF0020009017481430006840F40C
:1037500080501549143108600846006800F4805014
:10376000009000BF00BF02200290002003900320C1
:103770000490202001900520059001A90B48FEF738
:10378000B7FC402001900520059001A90748FEF7ED
:10379000AFFC052005908020019001A90348FEF7A9
:1037A000A7FC06B010BD0000303802400000024007
:1037B0002DE9F84F04460E4617461D46DDF82890C1
:1037C0004FF00008C24694F85180B8F1010F02D0C2
:1037D000B8F1220F76D10EB107B115B90120BDE8BD
:1037E000F88F00BF94F85000012801D10220F6E7BD
:1037F000012084F8500000BF94F85100012802D144
:10380000322084F8510000206065A763A587E58712
:103810002663A586E586A064E064A06AB0F5005F33
:103820000DD100BF2068006820F4005021680860B6
:103830002068006840F400502168086000BF2068DC
:10384000006800F04000402805D02068006840F083
:10385000400021680860E068B0F5006F75D16068CD
:1038600030B16068B0F5827F0CD1E08E012809D1BB
:10387000206B00882168C860206B801C2063E08E6C
:10388000401EE086E08EF0B9A06AB0F5005F05D179
:103890002068006840F48050216808604B46002290
:1038A0000121204603F0E2FD08B1032097E72068DC
:1038B000C068A16B0880A06B801CA063E08F401ED5
:1038C000E087C7E01BE131E04B46002202212046A1
:1038D00003F0CCFD08B1032081E7206B008821684C
:1038E000C860206B801C2063E08E401EE086E08E66
:1038F00048B9A06AB0F5005F05D12068006840F4BF
:103900008050216808604B4600220121204603F0C8
:10391000ADFD08B1032062E72068C068A16B088094
:10392000A06B801CA063E08F401EE087E08E002823
:10393000CADC60680028C4D14B4600220121204621
:1039400003F094FD10B1032049E70AE02068C06845
:10395000A16B0880A06B801CA063E08F401EE087F5
:1039600078E0606830B16068B0F5827F0BD1E08E9E
:10397000012808D1216B481C206308782168C860A1
:10398000E08E401EE086E08ED0B9A06AB0F5005F00
:1039900005D12068006840F48050216808604B46DB
:1039A00000220121204603F061FD08B1032016E743
:1039B0002068C068A16B0870E08F401EE08749E076
:1039C00030E04B4600220221204603F04FFD08B1B3
:1039D000032004E7216B481C206308782168C86035
:1039E000E08E401EE086E08E48B9A06AB0F5005F28
:1039F00005D12068006840F48050216808604B467B
:103A000000220121204603F031FD08B10320E6E643
:103A10002068C068C1B2A26B501CA0631170E08F17
:103A2000401EE087E08E0028CBDC606890B94B46F2
:103A300000220121204603F019FD08B10320CEE643
:103A40002068C068C1B2A26B501CA0631170E08FE7
:103A5000401EE087A06AB0F5005F12D14B460022FD
:103A60000121204603F002FD28B1606D40F0020004
:103A700060650320B3E62068C06880B20090BDF89E
:103A800000004B4601228021204603F0EFFC28B1C4
:103A9000606D40F0200060650320A0E6012084F8FE
:103AA000510020688068C0F3001AA06AB0F5005F7A
:103AB0001FD1BAF1000F1CD0606D40F002006065AC
:103AC000A06AB0F5005F0DD100BF2068006820F447
:103AD0000050216808602068006840F400502168A8
:103AE000086000BF00BF002084F8500000BF012024
:103AF00075E600BF002084F8500000BF6FE602208A
:103B00006DE6042808D14FF0E021096941F0040175
:103B10004FF0E022116107E04FF0E021096921F048
:103B200004014FF0E0221161704770B5044625464C
:103B3000681EB0F1807F01D301200FE0681E4FF0B6
:103B4000E02148610F214FF0FF3002F07BFE0020A2
:103B50004FF0E021886107200861002070BD10B59A
:103B600004462068406920F0800021684861206890
:103B7000406920F0400021684861206B10B1206B43
:103B8000FEF740F8606B10B1606BFEF73BF8202049
:103B900084F8390084F83A00002010BD704770B5F1
:103BA00004460025002620680068C0F34015206800
:103BB000C06800F020061DB116B1204604F065FA79
:103BC00070BD10B504460CB9012010BDA06900B14C
:103BD00000E000BF94F8390028B9002084F83800CC
:103BE000204600F027F8242084F839002068C068B7
:103BF00020F400502168C860204604F079FA20685B
:103C0000006920F49040216808612068406920F034
:103C10002A00216848612068C06840F4005021688B
:103C2000C8600020E063202084F8390084F83A005E
:103C30000020CAE770470000F7B50446154694F81F
:103C40003A00202834D1019800B10DB90120FEBD01
:103C500000BF94F83800012801D10220F7E70120C5
:103C600084F8380000BF0198A062A5850020E063B9
:103C7000222084F83A000F48616BC8630E48616BDC
:103C800008640E48616B886401AE32682368191DB0
:103C90002B46606BFEF734F92068406940F0400025
:103CA0002168486100BF002084F8380000BFCEE7DB
:103CB0000220CCE70B80000839800008E57F00086F
:103CC000704770472DE9F04104460D461646984668
:103CD00094F83900202855D105B116B90120BDE866
:103CE000F08100BF94F83800012801D10220F6E7E6
:103CF000012084F8380000BF0020E063212084F810
:103D00003900A684E68428E0E08C401EE084A068A8
:103D1000B0F5805F14D1434600228021204604F094
:103D20009BFB08B10320DAE72F463888C0F3080070
:103D300021684860206908B9AD1C0EE06D1C0CE0DC
:103D4000434600228021204604F086FB08B1032070
:103D5000C5E715F8010B21684860E08C0028D3D135
:103D6000434600224021204604F076FB08B10320A0
:103D7000B5E7202084F8390000BF002084F838001F
:103D800000BFACE70220AAE7F7B50446154694F851
:103D90003900202839D1019800B10DB90120FEBDAC
:103DA00000BF94F83800012801D10220F7E7012074
:103DB00084F8380000BF01982062A584E5840020C3
:103DC000E063212084F839001148216BC863114851
:103DD000216B08641048216B886401AE23681A1DAA
:103DE00031682B46206BFEF78BF86FF0400021689E
:103DF00008602068406940F080002168486100BF89
:103E0000002084F8380000BFC9E70220C7E700009F
:103E1000478000087D800008E57F0008016B096885
:103E2000096821F00101026B1268116003490978E9
:103E300021F00201014A117070470000C60A0020FB
:103E40007047000010B592B0044600BF00200090FB
:103E50007648006840F08050744908600846006861
:103E600000F08050009000BF00BF00BF0020009015
:103E70006F48006820F4404040F400406C490860FE
:103E80000846006800F44040009000BF00BF0120D9
:103E90000D9000200E9003210DA8FEF7E3FF08B15E
:103EA000FCF7F6FD022001900120049010200590FF
:103EB0000220079000210891502C43D008DC102CE0
:103EC0000DD0182C18D0302C23D0482C6ED12CE0DB
:103ED000602C44D06C2C4FD0902C67D159E010202E
:103EE000544908606020544908600620534908601E
:103EF00002205349086066E008204E4908606020AF
:103F00004D49086008204D49086004204C4908606C
:103F100059E0082047490860C02047490860082048
:103F200046490860464908604DE00820414908605C
:103F3000902041490860042040490860062040491B
:103F4000086040E008203B490860F0203A490860DA
:103F500006203A4908600A203949086033E0082001
:103F600034490860C020344908600420334908609F
:103F700008203349086026E008202E490860D82030
:103F80002D49086004202D49086009202C4908604B
:103F900019E008202749086090202749086002207E
:103FA000264908600620264908600CE008202149BF
:103FB00008609020204908600420204908600620FD
:103FC0001F49086000BF00BF1A48016809911A48DC
:103FD00001680A91194801680B91194801680C9110
:103FE00001A8FFF739F908B1FCF752FD0F200D9039
:103FF00002200E9000200F904FF48050109000206F
:10400000119003210DA8FEF72DFF08B1FCF740FD2C
:104010000120019000200290079001A8FFF71CF9F1
:1040200008B1FCF735FD12B010BD00004038024069
:1040300000700040300000203400002038000020D4
:104040003C00002008B500F0DDF9C1A20F216A2074
:10405000FDF7B4F9BFA20F213220FDF7AFF9BE483A
:104060000078012805D1BDA219213220FDF7A6F95B
:1040700004E0BBA219213220FDF7A0F9B94800786D
:10408000012805D1B8A219216A20FDF797F904E0AB
:10409000B6A219216A20FDF791F9B54890F9000000
:1040A000092836D2DFE800F035050B11171D23294A
:1040B0002F00B0A219211120FDF780F929E0AEA24E
:1040C00019211120FDF77AF923E0ACA21921112062
:1040D000FDF774F91DE0AAA219211120FDF76EF970
:1040E00017E0A8A219211120FDF768F911E0A6A296
:1040F00019211120FDF762F90BE0A4A2192111206A
:10410000FDF75CF905E0A2A219211120FDF756F98F
:1041100000BF00BF9F4890F9000009283CDA9D4885
:1041200090F90000092836D2DFE800F035050B11C0
:10413000171D23292F0098A20F211120FDF73EF90A
:1041400029E096A20F211120FDF738F923E094A26F
:104150000F211120FDF732F91DE092A20F2111204D
:10416000FDF72CF917E090A20F211120FDF726F999
:1041700011E08EA20F211120FDF720F90BE08CA297
:104180000F211120FDF71AF905E08AA20F21112055
:10419000FDF714F900BF04E07FA20F211120FDF705
:1041A0000DF98548007840B108200346834A0F2165
:1041B00000900420FDF78EF823E08148007820B1BC
:1041C00001280BD002281BD111E0082003467B4AAE
:1041D0000F2100900420FDF77DF811E008200A234C
:1041E000784A0F2100900420FDF774F808E00820B9
:1041F0000A23754A0F2100900420FDF76BF800BFD9
:1042000000BF7248007806283FDA70480078062818
:104210003AD2DFE800F0030C151E273007201323E5
:104220006B4A0F2100904020FDF754F82CE0072046
:104230001323684A0F2100904020FDF74BF823E03C
:1042400007201323644A0F2100904020FDF742F815
:104250001AE007201323614A0F2100904020FDF748
:1042600039F811E0072013235D4A0F210090402008
:10427000FDF730F808E0072013235A4A0F21009079
:104280004020FDF727F800BF07E007201323534A1B
:104290000F2100904020FDF71DF8534800780128B9
:1042A00008D107200D23514A0F2100907120FDF7FE
:1042B00011F84CE04E480068808D40F6C4118842E9
:1042C00008DD07200D234B4A0F2100907120FDF7D8
:1042D00001F83CE046480068808D40F6CA018842FB
:1042E0000FDD43480068808D40F6C411884208DC29
:1042F00007200D23404A0F2100907120FCF7EAFFB0
:1043000025E03B480068808D40F6020188420FDDC1
:1043100037480068808D40F6CA01884208DC0720D3
:104320000D23364A0F2100907120FCF7D3FF0EE0D9
:104330002F480068808D40F60201884207DC072084
:104340000D232F4A0F2100907120FCF7C3FF08BDF9
:104350004200000052420000BB0000204630000036
:104360004C300000C5000020413C00003C420000F1
:10437000AF0000203123000032230000332300006F
:1043800034230000352300003623000037230000CB
:1043900038230000B0000020434831004348320079
:1043A000434833004348340043483500434836000F
:1043B0004348370043483800AD0000204ABD00089C
:1043C0009F00002042BD000832BD0008A000002070
:1043D0001DBD0008B4BC0008C9BC0008DEBC000854
:1043E000F3BC000808BD00089E0000208ABD00083C
:1043F0001400002052BD000860BD00086EBD00081A
:104400007CBD000810B502202449086000204860E7
:104410007E2088604020C8602148007800F00100BC
:10442000D0B100201F49087000211C48C1611E48FE
:10443000007820B1012806D002280CD107E01BA08B
:104440001649086107E01CA01449086103E01EA09A
:104450001249086100BF1AE00120124908700521C5
:104460000E4841761C480078012807D100201A49DF
:1044700008701A48008800F03BF808E018480078F7
:1044800028B120200549087616A10448C161002002
:10449000024948610846FDF719F810BD00120020D6
:1044A00092000020EB000020A80000205459504545
:1044B00020434F44453A00005459504520434F444F
:1044C000453A202A000000005459504520434F44EB
:1044D000453A202A2A000000EA000020AA00002015
:1044E000AD000020CDA8D1B6CAA7B0DC0000000006
:1044F00010B50446362C70D2DFE804F01B222930B8
:10450000373E454C535A616870777E858C6F6F6F6C
:104510006F6F6F6F6F6F6F6F6F6F6F939AA1A8AFB1
:10452000B6BDC4CBD2D9E0F2F9EFEEEDECEBEAE99F
:10453000E8E72020C9490876C9A1C848C16128E137
:104540003820C6490876C9A1C448C16121E1382094
:10455000C2490876C6A1C148C1611AE12820BF49F5
:104560000876C4A1BD48C16113E12820BB49087683
:10457000C2A1BA48C1610CE12820B8490876C1A19E
:10458000B648C16105E12820B4490876BFA1B34807
:10459000C161FEE02820B1490876BEA1AF48C161E3
:1045A000F7E02020AD490876BCA1AC48C161F0E03D
:1045B0002820AA490876BCA1A848C161E9E02020CA
:1045C000A6490876BAA1A548C161E2E02820A3491E
:1045D0000876BAA1A148C161DBE0CEE020209F4966
:1045E0000876B8A19D48C161D3E028209B49087690
:1045F000B7A19A48C161CCE0202098490876B6A1BD
:104600009648C161C5E0282094490876B5A1934831
:10461000C161BEE0282091490876B4A18F48C161EC
:10462000B7E01C208D490876B2A18C48C161B0E08A
:1046300028208A490876B2A18848C161A9E02820CB
:1046400086490876B0A18548C161A2E0202083494F
:104650000876AFA18148C1619BE020207F490876A0
:10466000AEA17E48C16194E014207C490876AEA1D9
:104670007A48C1618DE0142078490876ADA1774869
:10468000C16186E0142075490876ADA17348C16107
:104690007FE0142071490876ACA17048C16178E0D0
:1046A00014206E490876A0A16C48C16171E0142005
:1046B0006A4908769FA16948C1616AE01820674984
:1046C0000876A5A16548C16163E04FE047E03FE09F
:1046D00037E02FE027E01FE017E00FE007E0FFE7FB
:1046E00018205E4908769FA15C48C16151E01820FE
:1046F0005A4908769EA15948C1614AE01820574995
:1047000008769EA15548C16143E0182053490876B8
:104710009DA15248C1613CE01820504908769DA1F6
:104720004E48C16135E018204C4908769CA14B48A1
:10473000C1612EE01420494908769CA14748C16117
:1047400027E02020454908769CA14448C16120E02B
:104750002020424908769CA14048C16119E01420FC
:104760003E4908769BA13D48C16112E028203B49A3
:1047700008769CA13948C1610BE03820374908769A
:1047800022469AA19A4805F055F899493348C161E3
:1047900000BF00BFB4F57A7F14DBB4F5FA6F11DA0D
:1047A000A4F57A7093490880084602888FA1924840
:1047B00005F040F82020294908768F49491F2748ED
:1047C000C16149E0B4F5FA6F15DB40F6B8308442B8
:1047D00011DAA4F5FA60874908800846028883A1A7
:1047E000864805F027F820201C4908768349491F90
:1047F0001A48C16130E040F6B730844214DDB4F5A8
:104800007A6F11DAA4F6B8307A490880084602882F
:1048100076A17B4805F00EF82020104908767849EB
:10482000491F0E48C16117E0B4F57A6F14DB41F2FD
:104830008830844210DAA4F57A606E490880084610
:1048400002886AA16F4804F0F5FF2020034908762A
:104850006C49491F0148C16110BD000000120020D1
:10486000B4FDBBFAD7B4CCAC00000000555000003A
:10487000444E0000465744204C0000004657442058
:1048800048000000424B57204C000000424B57208C
:1048900048000000B5A5B3F6D6D00000B5A5B3F624
:1048A000CDEAB3C900000000B5A5C8EBD6D0000022
:1048B000B5A5C8EBCDEAB3C900000000C1ACC8EB98
:1048C000D6D00000C1ACC8EBCDEAB3C900000000EF
:1048D000C1ACB3F6D6D00000C1ACB3F6CDEAB3C9D3
:1048E00000000000C5CCB5E3D6D00000D5FBC0ED7C
:1048F000D6D00000D4B6B3CCB5E7C1BFB5CD00006B
:10490000C7B0D5CFB0AD0000BAF3D5CFB0AD000081
:1049100055502D444EB3ACCAB1000000C7B0BAF335
:10492000B3ACCAB100000000C7B0BCF5504C53B9DD
:10493000CAD5CF00BAF3BCF5504C53B9CAD5CF0095
:10494000C7B0CFDE504C53B9CAD5CF00BAF3CFDED3
:10495000504C53B9CAD5CF00C7B0C5CC504C53B991
:10496000CAD5CF00BAF3C5CC504C53B9CAD5CF0085
:10497000C7B0CEBB504C53B9CAD5CF00BAF3CEBBEB
:10498000504C53B9CAD5CF00C7B0D5CF504C53B94E
:10499000CAD5CF00BAF3D5CF504C53B9CAD5CF0042
:1049A000BDD3BDFC504C53B9CAD5CF00C7B0BAF384
:1049B000C7FDB6AFB9CAD5CF00000000B1E0C2EB69
:1049C000B9CAD5CF00000000CDD1B9ECB9CAD5CF56
:1049D00000000000C9FDBDB5C7FDB6AFB9CAD5CF4F
:1049E00000000000C5CCB3ACB3A4000025640000F7
:1049F000CC110020CE010020810100209501002073
:104A0000A9010020BD01002010B51048FDF76EFC83
:104A100098B94CF250300D49486000210B48816034
:104A20003321C1604FF480410161094807490860A2
:104A300000F010F80548FDF75DFC0448FDF756FC52
:104A4000012801D1002010BD0120FCE7100C00203E
:104A50000054004000B587B000BF002001901E4800
:104A6000006840F002001C4908600846006800F039
:104A70000200019000BF00BF4FF44070029012206E
:104A8000039001200590002004900420069002A9C4
:104A90001248FDF72DFB00BF002001900E4810309A
:104AA000006840F400100C491031086008460068A6
:104AB00000F40010019000BF00BF074810380068E4
:104AC00040F400100449103908600846006820F4DA
:104AD0000010086007B000BD3038024000040240FA
:104AE00000B585B02AA003F029F810202A232D4A0A
:104AF0000F2100900820FCF7EDFB2B48B0F90020B7
:104B00002AA102A804F096FE02AA28210A20FCF796
:104B100055FC27480078012827D114214620FCF7AE
:104B2000C7FA28214620FCF799FA22480078022883
:104B30002CD101201F4908701B4800780023062251
:104B400049F6474100900C2001F088FD00204FF409
:104B5000FA710346184ACDE9001018A11B4806F067
:104B600019FB1A4806F02EFB10E014214620FCF732
:104B700091FA28214620FCF77FFA0E480078022897
:104B800004D100200B4908701149087005B000BD20
:104B9000496E64656C61792053656E636F6E6473F2
:104BA00000000000E8C40008BC00002025640000EC
:104BB000990000209A0000209D6C000850617261ED
:104BC0006D65746572496E7175727900A01100206F
:104BD0009600002010B54FF4165006F05BFF01223E
:104BE00011021648FDF776FB012251021348FDF72A
:104BF00071FB012240211148FDF76CFBC82004F035
:104C0000B9FF0F48092182680E489047C82004F078
:104C1000B1FF00224FF480710848FDF75BFB0022D2
:104C20004FF400710548FDF755FB4FF4164006F0B0
:104C300031FF642004F09EFF10BD00000008024018
:104C4000040300202DE4000810B51648164908603A
:104C50004FF41660096888852A20124908700020E0
:104C6000FCF784F81149087008460078032801DD34
:104C7000012008700120FCF779F80D4908700846FA
:104C80000078142801DD012008700220FCF76EF87E
:104C90000849087008460078142801DD01200870D2
:104CA00010BD0000C002002014000020C50000203C
:104CB000DE000020BB00002010B50022102141487A
:104CC000FDF708FB00204049086018E000203E493D
:104CD000086009E0012210213A48FDF7FBFA3A4842
:104CE0000068401C384908603748006840F6B83111
:104CF0008842EFD334480068401C3349086032488A
:104D0000006840F6B8318842E0D3AE2001F048FC9C
:104D1000002001F045FC102001F042FC402001F091
:104D20003FFC812001F03CFCCF2001F039FCA120A8
:104D300001F036FCC82001F033FCA62001F030FC65
:104D4000A82001F02DFC3F2001F02AFCD32001F027
:104D500027FC002001F024FCD52001F021FC80205C
:104D600001F01EFCD92001F01BFCF12001F018FC21
:104D7000DA2001F015FC122001F012FCDB2001F01A
:104D80000FFC402001F00CFC202001F009FC022067
:104D900001F006FC8D2001F003FC142001F000FC62
:104DA000A42001F0FDFBA62001F0FAFBAF2001F0EA
:104DB000F7FB002001F08EFB0021084601F0DAFB32
:104DC00010BD0000000802402801002000B585B099
:104DD00034480078012803D133A002F0AFFE05E08B
:104DE0003048007810B934A002F0A8FE10201C232F
:104DF000354A0F2100900820FCF76CFA334890F9EF
:104E0000002033A102A804F015FD02AA28210A20DF
:104E1000FCF7D4FA2F480078012830D1142146201D
:104E2000FCF746F928214620FCF718F92A480078B3
:104E3000022835D101202849087024480078002331
:104E4000062249F6434100900C2001F007FC1F4860
:104E5000007814490870012202211248FBF78EFFE6
:104E600000204FF4FA7103461C4ACDE900101CA142
:104E70001F4806F08FF91E4806F0A4F910E014212F
:104E80004620FCF707F928214620FCF7F5F81248E0
:104E90000078022804D100200F49087015490870D5
:104EA00005B000BDBB000020496E6F75743A31201B
:104EB0006973204630000000496E6F75743A3120E6
:104EC0006973204C30000000C8C30008BA000020FD
:104ED00025640000990000209A0000209D6C0008C5
:104EE000506172616D65746572496E717572790099
:104EF000A01100209600002038B50446164800781E
:104F0000401C1549087008460078042811D100207B
:104F10000870124908704023062249F6414100906A
:104F20000C2001F09BFB01200C4908700CA01049DB
:104F300008614FF400610F48FDF7C4F9012803D15F
:104F40000D4806F03FF905E00020034908700A48C3
:104F500006F000F938BD000070010020EB000020D1
:104F60004265654C6F6E6750726573730000000098
:104F700000120020000802407411002038B50446D9
:104F8000712C7DD020DC402C7BD00EDC212C79D004
:104F900006DC102C37D0112C75D0202C74D19FE05A
:104FA000302C72D0312CF9D138E1602C6ED006DC77
:104FB000412C6CD0502C6BD0512CEFD1E0E1612C06
:104FC00067D0702CEAD159E2C02C7DD00EDC912C38
:104FD0007BD006DC802C79D0812C78D0902CDDD150
:104FE000FEE2B02C74D0B12CD8D182E3D12C70D099
:104FF00004DCC12C6ED0D02CD0D1FDE3E02C6AD0E3
:10500000E12CCBD1F9E3FE48007800F0010018B1A3
:10501000FC480078FBF7F8FBFB480078C0F3C000C1
:1050200048B1FA480078012805D1F9490878F549CE
:10503000097801F08DFDF4480078C0F3401048B1C4
:10504000F4480078012805D1F3490878ED4909783A
:1050500002F0BCFEEC480078C0F3800020B1E948C3
:10506000007840B2ED490870E548007800F0010092
:10507000C0B9E548007800F0010098B1022009E0CD
:1050800041E2DFE071E00EE03CE282E08CE11EE113
:1050900031E1DFE10023062249F6414100900C2076
:1050A00001F0DCFA2EE2D648007800F00100B0B939
:1050B000D548007800F0010088B1002003460622A0
:1050C00049F64141009007E027E3CEE22FE273E288
:1050D000DFE2FDE3CBE3FCE30C2001F0BFFAE1E704
:1050E000C748007800F0010018B1C6480078FBF707
:1050F0008BFBC5480078C0F3C00048B1C3480078B6
:10510000012805D1C2490878BE49097801F020FD7F
:10511000BD480078C0F3401048B1BE48007801286F
:1051200005D1BD490878B749097802F04FFEB64865
:105130000078C0F3800020B1B248007840B2B7498F
:105140000870AF48007800F0010068B9AE480078F8
:1051500000F0010040B180200023062249F64141C1
:1051600000900C2001F07AFA9CE7A548007800F046
:10517000010068B9A448007800F0010040B10020A7
:105180000346062249F6414100900C2001F066FAE0
:1051900088E79B48007800F0010018B19948007832
:1051A000FBF732FB98480078C0F3C00048B197483D
:1051B0000078012805D1964908789249097801F0CC
:1051C000C7FC91480078C0F3401048B1914800787E
:1051D000012805D1904908788A49097802F0F6FD3E
:1051E00089480078C0F3800020B18648007840B23A
:1051F0008A4908708248007800F0010068B9824846
:10520000007800F0010040B104200023062249F696
:10521000414100900C2001F021FA43E778480078E2
:1052200000F0010068B97848007800F0010040B152
:1052300000200346062249F6414100900C2001F06F
:105240000DFA2FE76E48007800F0010018B16D48A4
:105250000078FBF7D9FA6C480078C0F3C00048B179
:105260006A480078012805D16949087865490978B4
:1052700001F06EFC64480078C0F3401048B1654806
:105280000078012805D1644908785E49097802F060
:105290009DFD5D480078C0F3800020B1594800783A
:1052A00040B25E4908705648007800F0010068B9C5
:1052B0005548007800F0010040B100200423062288
:1052C00049F6414100900C2001F0C8F9FDE34C483B
:1052D000007800F0010068B94B48007800F0010048
:1052E00040B100200346062249F6414100900C20BF
:1052F00001F0B4F9E9E34248007800F0010018B188
:1053000040480078FBF780FA3F480078C0F3C000BF
:1053100048B13E480078012805D13D49087839490F
:10532000097801F015FC38480078C0F3401048B106
:1053300038480078012805D137490878314909787B
:1053400002F044FD30480078C0F3800020B12D48C1
:10535000007840B2314908702948007800F0010017
:1053600068B92948007800F0010040B140200023CE
:10537000062249F6414100900C2001F06FF9A4E3A8
:105380001F48007800F0010068B91F48007800F05D
:10539000010040B100200346062249F64141009039
:1053A0000C2001F05BF990E31548007800F0010053
:1053B00018B114480078FBF727FA13480078C0F3B7
:1053C000C00048B111480078012805D1104908787B
:1053D0000C49097801F0BCFB0B480078C0F3401081
:1053E00048B10C480078012805D10B4908780549D7
:1053F000097802F0EBFC04480078C0F380000FE06D
:10540000920000202C010020910000209600002036
:10541000940000209800002095000020AF0000209C
:1054200020B1FE48007840B2FD490870FD48007880
:1054300000F0010068B9FC48007800F0010040B1BC
:1054400000200823062249F6414100900C2001F07B
:1054500005F93AE3F348007800F0010068B9F24832
:10546000007800F0010040B100200346062249F612
:10547000414100900C2001F0F1F826E3E948007862
:1054800000F0010018B1E5480078FBF7BDF9E648E7
:105490000078C0F3C00048B1E4480078012805D185
:1054A000E3490878DD49097801F052FBDE480078CD
:1054B000C0F3401048B1DF480078012805D1DE492B
:1054C0000878D649097802F081FCD7480078C0F303
:1054D000800020B1D148007840B2D1490870D1484D
:1054E000007800F0010068B9CF48007800F00100B2
:1054F00040B101200023062249F6414100900C20D2
:1055000001F0ACF8E1E2C748007800F0010068B9AA
:10551000C548007800F0010040B100200346062293
:1055200049F6414100900C2001F098F8CDE2BD48C9
:10553000007800F0010018B1B8480078FBF764F972
:10554000B9480078C0F3C00048B1B84800780128D5
:1055500005D1B7490878B149097801F0F9FAB2489C
:105560000078C0F3401048B1B2480078012805D156
:10557000B1490878A949097802F028FCAA480078BE
:10558000C0F3800020B1A548007840B2A44908705B
:10559000A448007800F0010068B9A348007800F042
:1055A000010040B100200123062249F6414100904C
:1055B0000C2001F053F888E29A48007800F00100CE
:1055C00068B99948007800F0010040B10020034616
:1055D000062249F6414100900C2001F03FF874E2A8
:1055E0009048007800F0010018B18C480078FBF773
:1055F0000BF98D480078C0F3C00048B18B480078A3
:10560000012805D18A4908788449097801F0A0FA6F
:1056100085480078C0F3401048B1864800780128DA
:1056200005D1854908787D49097802F0CFFB7E488D
:105630000078C0F3800020B17848007840B2784903
:1056400008707848007800F0010068B97648007862
:1056500000F0010040B120200023062249F641411C
:1056600000900C2000F0FAFF2FE26E48007800F066
:10567000010068B96C48007800F0010040B10020DA
:105680000346062249F6414100900C2000F0E6FF57
:105690001BE26448007800F0010028B15F490978F6
:1056A0000B39C8B2FBF7B0F85F480078C0F3C00010
:1056B00058B15E480078012807D1584A12780B3A51
:1056C000D1B25B4A107801F043FA5648007800F0F6
:1056D000010068B95448007800F0010040B108208A
:1056E0000023062249F6414100900C2000F0B6FF4D
:1056F000EBE14C48007800F0010068B94A480078B6
:1057000000F0010040B100200346062249F6414165
:1057100000900C2000F0A2FFD7E143480078C0F3CE
:10572000400060B145480078401E40B243490870CF
:10573000084690F90000401C08B9042008703A4857
:105740000078C0F3C000E8B13848007868B938483C
:105750000078401E40B236490870084690F90000B3
:10576000401C78B9082008700CE035480078401ECD
:1057700040B233490870084690F90000401C08B94F
:105780000120087028480078C0F3800060B12C48E0
:105790000078401E40B22A490870084690F900007F
:1057A000401C08B9012008701F480078C0F3401061
:1057B000E8B12048007868B91F480078401E40B220
:1057C0001D490870084690F90000401C78B9052072
:1057D00008700CE01A480078401E40B21849087062
:1057E000084690F90000401C08B9012008700E48D6
:1057F0000078C0F3001001E04DE052E160B11148C3
:105800000078401E40B20F490870084690F9000029
:10581000401C08B901200870024815E02C01002046
:10582000AF00002092000020910000209600002090
:105830009400002098000020950000209300002094
:1058400099000020EC000020007800F0010068B909
:105850009F48007800F0010040B10020102306228C
:1058600049F6414100900C2000F0F8FE2DE19948E6
:10587000007800F0010068B99548007800F0010058
:1058800040B100200346062249F6414100900C2019
:1058900000F0E4FE19E18E480078022806D00428C2
:1058A0001CD0082820D0202836D12CE08848007849
:1058B00020F00200864908708748FBF7E7FE87481A
:1058C0000078801C012101FA00F08149097801E08B
:1058D0004AE05DE008437E4908701DE0804800789A
:1058E000401C7F49087017E001207E4908707E48FF
:1058F000007810B901207D4908707B480078401C71
:105900007949087008E001207949087079480078E1
:10591000401C7849087000BF00BF6D480078C0F394
:10592000001068B174480078012809D1002072493C
:105930000870674908700846007840F00200087057
:105940006448007800F0010068B96148007800F010
:10595000010040B100202023062249F64141009079
:105960000C2000F07BFEB0E05A48007800F0010007
:1059700068B95748007800F0010040B100200346A4
:10598000062249F6414100900C2000F067FE9CE0A1
:105990004F480078C0F3400058B150480078401C90
:1059A00040B24E49087008460078052801D1002011
:1059B000087047480078C0F3C000D8B14948007863
:1059C00060B94E480078401C40B24C490870084607
:1059D000007809280ED1002008700BE048480078B4
:1059E000401C40B24649087008460078022801D1A0
:1059F0000020087036480078C0F3800058B1404855
:105A00000078401C40B23E490870084600780228E1
:105A100001D1002008702E480078C0F34010D8B1A2
:105A20003348007860B937480078401C40B23549A7
:105A300008700846007806280ED1002008700BE098
:105A40002F480078401C40B22D4908700846007865
:105A5000022801D1002008701D480078C0F3001012
:105A600058B129480078401C40B2274908700846C0
:105A70000078022801D1002008701648007800F054
:105A8000010068B91248007800F0010040B1102010
:105A90000023062249F6414100900C2000F0DEFD73
:105AA00013E00C48007800F0010068B9084800785D
:105AB00000F0010040B100200346062249F64141B2
:105AC00000900C2000F0CAFD00BF00BF38BD0000F0
:105AD0009100002092000020D811002093000020A7
